{
  "address": "0x36143cA32A5cE1E34C8c009a0582E7Bd8b822aBd",
  "abi": [
    {
      "inputs": [
        {
          "internalType": "contract Mytoken",
          "name": "_myToken",
          "type": "address"
        },
        {
          "internalType": "contract Mytoken2",
          "name": "_anotherToken",
          "type": "address"
        }
      ],
      "stateMutability": "nonpayable",
      "type": "constructor"
    },
    {
      "inputs": [],
      "name": "claimReward__transferFailed",
      "type": "error"
    },
    {
      "inputs": [],
      "name": "stake__transferFailed",
      "type": "error"
    },
    {
      "inputs": [],
      "name": "staking__needMoreThanZero",
      "type": "error"
    },
    {
      "inputs": [],
      "name": "unstakeNot_called",
      "type": "error"
    },
    {
      "inputs": [],
      "name": "waitingPeriod_notCompleted",
      "type": "error"
    },
    {
      "inputs": [],
      "name": "withdraw__transferFailed",
      "type": "error"
    },
    {
      "anonymous": false,
      "inputs": [
        {
          "indexed": true,
          "internalType": "address",
          "name": "user",
          "type": "address"
        },
        {
          "indexed": true,
          "internalType": "uint256",
          "name": "amount",
          "type": "uint256"
        }
      ],
      "name": "RewardsClaimed",
      "type": "event"
    },
    {
      "anonymous": false,
      "inputs": [
        {
          "indexed": true,
          "internalType": "address",
          "name": "user",
          "type": "address"
        },
        {
          "indexed": true,
          "internalType": "uint256",
          "name": "amount",
          "type": "uint256"
        }
      ],
      "name": "Staked",
      "type": "event"
    },
    {
      "anonymous": false,
      "inputs": [
        {
          "indexed": true,
          "internalType": "address",
          "name": "user",
          "type": "address"
        },
        {
          "indexed": true,
          "internalType": "uint256",
          "name": "amount",
          "type": "uint256"
        }
      ],
      "name": "WithdrewStake",
      "type": "event"
    },
    {
      "inputs": [],
      "name": "RewardRate",
      "outputs": [
        {
          "internalType": "uint256",
          "name": "",
          "type": "uint256"
        }
      ],
      "stateMutability": "view",
      "type": "function"
    },
    {
      "inputs": [
        {
          "internalType": "address",
          "name": "",
          "type": "address"
        }
      ],
      "name": "StakersBalance",
      "outputs": [
        {
          "internalType": "uint256",
          "name": "",
          "type": "uint256"
        }
      ],
      "stateMutability": "view",
      "type": "function"
    },
    {
      "inputs": [],
      "name": "anotherToken",
      "outputs": [
        {
          "internalType": "contract Mytoken2",
          "name": "",
          "type": "address"
        }
      ],
      "stateMutability": "view",
      "type": "function"
    },
    {
      "inputs": [
        {
          "internalType": "address",
          "name": "account",
          "type": "address"
        }
      ],
      "name": "earned",
      "outputs": [
        {
          "internalType": "uint256",
          "name": "",
          "type": "uint256"
        }
      ],
      "stateMutability": "view",
      "type": "function"
    },
    {
      "inputs": [],
      "name": "getAnotherTokenBalance",
      "outputs": [
        {
          "internalType": "uint256",
          "name": "",
          "type": "uint256"
        }
      ],
      "stateMutability": "view",
      "type": "function"
    },
    {
      "inputs": [
        {
          "internalType": "uint256",
          "name": "amount",
          "type": "uint256"
        }
      ],
      "name": "mintTokensForStacker",
      "outputs": [],
      "stateMutability": "nonpayable",
      "type": "function"
    },
    {
      "inputs": [],
      "name": "myToken",
      "outputs": [
        {
          "internalType": "contract Mytoken",
          "name": "",
          "type": "address"
        }
      ],
      "stateMutability": "view",
      "type": "function"
    },
    {
      "inputs": [],
      "name": "rewardPerToken",
      "outputs": [
        {
          "internalType": "uint256",
          "name": "",
          "type": "uint256"
        }
      ],
      "stateMutability": "view",
      "type": "function"
    },
    {
      "inputs": [],
      "name": "s_lastUpdateTime",
      "outputs": [
        {
          "internalType": "uint256",
          "name": "",
          "type": "uint256"
        }
      ],
      "stateMutability": "view",
      "type": "function"
    },
    {
      "inputs": [],
      "name": "s_rewardPerTokenStored",
      "outputs": [
        {
          "internalType": "uint256",
          "name": "",
          "type": "uint256"
        }
      ],
      "stateMutability": "view",
      "type": "function"
    },
    {
      "inputs": [],
      "name": "s_totalSupply",
      "outputs": [
        {
          "internalType": "uint256",
          "name": "",
          "type": "uint256"
        }
      ],
      "stateMutability": "view",
      "type": "function"
    },
    {
      "inputs": [
        {
          "internalType": "uint256",
          "name": "_amount",
          "type": "uint256"
        }
      ],
      "name": "transferTokens",
      "outputs": [],
      "stateMutability": "nonpayable",
      "type": "function"
    },
    {
      "inputs": [],
      "name": "unboundingPeriod",
      "outputs": [
        {
          "internalType": "uint256",
          "name": "",
          "type": "uint256"
        }
      ],
      "stateMutability": "view",
      "type": "function"
    },
    {
      "inputs": [],
      "name": "unstake",
      "outputs": [],
      "stateMutability": "nonpayable",
      "type": "function"
    },
    {
      "inputs": [],
      "name": "unstakeTimestamp",
      "outputs": [
        {
          "internalType": "uint256",
          "name": "",
          "type": "uint256"
        }
      ],
      "stateMutability": "view",
      "type": "function"
    },
    {
      "inputs": [
        {
          "internalType": "uint256",
          "name": "amount",
          "type": "uint256"
        }
      ],
      "name": "withdraw",
      "outputs": [],
      "stateMutability": "nonpayable",
      "type": "function"
    }
  ],
  "transactionHash": "0x426bb1a45302f8919d04773c0aaa0286f21f29cfa26ebf54fc3d997ba43f5592",
  "args": [
    "0x5b052A4ef37e5Bb53cfC689C2767f4a8Fc375084",
    "0xC209a4eF17eddf051349Db97e064BC0594e62330"
  ],
  "numDeployments": 2,
  "solcInputHash": "3c41655eaf10368f1020ef06a73def67",
  "bytecode": "0x60806040526064600255670de0b6b3a76400006006553480156200002257600080fd5b506040516200125138038062001251833981810160405281019062000048919062000194565b816000806101000a81548173ffffffffffffffffffffffffffffffffffffffff021916908373ffffffffffffffffffffffffffffffffffffffff16021790555080600160006101000a81548173ffffffffffffffffffffffffffffffffffffffff021916908373ffffffffffffffffffffffffffffffffffffffff1602179055505050620001db565b600080fd5b600073ffffffffffffffffffffffffffffffffffffffff82169050919050565b60006200010382620000d6565b9050919050565b60006200011782620000f6565b9050919050565b62000129816200010a565b81146200013557600080fd5b50565b60008151905062000149816200011e565b92915050565b60006200015c82620000f6565b9050919050565b6200016e816200014f565b81146200017a57600080fd5b50565b6000815190506200018e8162000163565b92915050565b60008060408385031215620001ae57620001ad620000d1565b5b6000620001be8582860162000138565b9250506020620001d1858286016200017d565b9150509250929050565b61106680620001eb6000396000f3fe608060405234801561001057600080fd5b50600436106100ff5760003560e01c8063852b96c711610097578063bd37d96711610066578063bd37d96714610278578063ccc23e5214610296578063cd3daf9d146102b4578063fd9a4e61146102d2576100ff565b8063852b96c7146101ee5780638a1833a51461021e5780639a9b20e31461023c578063b8fcf9371461025a576100ff565b80634bd989ca116100d35780634bd989ca146101785780636a74a0fc146101945780636aa0838f146101b257806375edb325146101d0576100ff565b80628cc262146101045780632def6620146101345780632e1a7d4d1461013e578063304ac91b1461015a575b600080fd5b61011e60048036038101906101199190610c75565b6102ee565b60405161012b9190610cbb565b60405180910390f35b61013c610407565b005b61015860048036038101906101539190610d02565b61049c565b005b61016261071c565b60405161016f9190610cbb565b60405180910390f35b610192600480360381019061018d9190610d02565b610722565b005b61019c6107b2565b6040516101a99190610cbb565b60405180910390f35b6101ba6107b8565b6040516101c79190610cbb565b60405180910390f35b6101d86107be565b6040516101e59190610cbb565b60405180910390f35b61020860048036038101906102039190610c75565b6107c4565b6040516102159190610cbb565b60405180910390f35b6102266107dc565b6040516102339190610cbb565b60405180910390f35b6102446107e2565b6040516102519190610cbb565b60405180910390f35b610262610884565b60405161026f9190610d8e565b60405180910390f35b6102806108a8565b60405161028d9190610dca565b60405180910390f35b61029e6108ce565b6040516102ab9190610cbb565b60405180910390f35b6102bc6108d4565b6040516102c99190610cbb565b60405180910390f35b6102ec60048036038101906102e79190610d02565b610937565b005b600080600760008473ffffffffffffffffffffffffffffffffffffffff1673ffffffffffffffffffffffffffffffffffffffff1681526020019081526020016000205490506000600960008573ffffffffffffffffffffffffffffffffffffffff1673ffffffffffffffffffffffffffffffffffffffff16815260200190815260200160002054905060006103816108d4565b90506000600860008773ffffffffffffffffffffffffffffffffffffffff1673ffffffffffffffffffffffffffffffffffffffff16815260200190815260200160002054905080670de0b6b3a764000084846103dd9190610e14565b866103e89190610e48565b6103f29190610eb9565b6103fc9190610eea565b945050505050919050565b6000600760003373ffffffffffffffffffffffffffffffffffffffff1673ffffffffffffffffffffffffffffffffffffffff16815260200190815260200160002054101561048a576040517f08c379a000000000000000000000000000000000000000000000000000000000815260040161048190610f7b565b60405180910390fd5b42600c819055506103e8600681905550565b6104a46108d4565b60058190555042600481905550600554600960003373ffffffffffffffffffffffffffffffffffffffff1673ffffffffffffffffffffffffffffffffffffffff16815260200190815260200160002081905550670de0b6b3a7640000600654146106e75742600a60003373ffffffffffffffffffffffffffffffffffffffff1673ffffffffffffffffffffffffffffffffffffffff1681526020019081526020016000208190555080600760003373ffffffffffffffffffffffffffffffffffffffff1673ffffffffffffffffffffffffffffffffffffffff168152602001908152602001600020546105979190610e14565b600760003373ffffffffffffffffffffffffffffffffffffffff1673ffffffffffffffffffffffffffffffffffffffff16815260200190815260200160002081905550806003546105e89190610e14565b600381905550803373ffffffffffffffffffffffffffffffffffffffff167f4cb6da433ea55f6e302b7bdbfeed740816a42301cde7f5bac5dff2b34037637460405160405180910390a360008054906101000a900473ffffffffffffffffffffffffffffffffffffffff1673ffffffffffffffffffffffffffffffffffffffff166340c10f193383600a60018661067f9190610e48565b6106899190610eb9565b6106939190610eea565b6040518363ffffffff1660e01b81526004016106b0929190610faa565b600060405180830381600087803b1580156106ca57600080fd5b505af11580156106de573d6000803e3d6000fd5b50505050610719565b6040517f1f2dcc7600000000000000000000000000000000000000000000000000000000815260040160405180910390fd5b50565b60055481565b60008054906101000a900473ffffffffffffffffffffffffffffffffffffffff1673ffffffffffffffffffffffffffffffffffffffff166340c10f1933836040518363ffffffff1660e01b815260040161077d929190610faa565b600060405180830381600087803b15801561079757600080fd5b505af11580156107ab573d6000803e3d6000fd5b5050505050565b60035481565b60045481565b600c5481565b600b6020528060005260406000206000915090505481565b60025481565b60008060009054906101000a900473ffffffffffffffffffffffffffffffffffffffff1673ffffffffffffffffffffffffffffffffffffffff166370a08231306040518263ffffffff1660e01b815260040161083e9190610fd3565b602060405180830381865afa15801561085b573d6000803e3d6000fd5b505050506040513d601f19601f8201168201806040525081019061087f9190611003565b905090565b60008054906101000a900473ffffffffffffffffffffffffffffffffffffffff1681565b600160009054906101000a900473ffffffffffffffffffffffffffffffffffffffff1681565b60065481565b600080600354036108e9576005549050610934565b600354670de0b6b3a7640000600254600454426109069190610e14565b6109109190610e48565b61091a9190610e48565b6109249190610eb9565b6005546109319190610eea565b90505b90565b80600760003373ffffffffffffffffffffffffffffffffffffffff1673ffffffffffffffffffffffffffffffffffffffff168152602001908152602001600020546109829190610eea565b600760003373ffffffffffffffffffffffffffffffffffffffff1673ffffffffffffffffffffffffffffffffffffffff16815260200190815260200160002081905550806003546109d39190610eea565b60038190555060008054906101000a900473ffffffffffffffffffffffffffffffffffffffff1673ffffffffffffffffffffffffffffffffffffffff166340c10f1930836040518363ffffffff1660e01b8152600401610a34929190610faa565b600060405180830381600087803b158015610a4e57600080fd5b505af1158015610a62573d6000803e3d6000fd5b5050505060008054906101000a900473ffffffffffffffffffffffffffffffffffffffff1673ffffffffffffffffffffffffffffffffffffffff16639dc29fac33836040518363ffffffff1660e01b8152600401610ac1929190610faa565b600060405180830381600087803b158015610adb57600080fd5b505af1158015610aef573d6000803e3d6000fd5b50505050600160009054906101000a900473ffffffffffffffffffffffffffffffffffffffff1673ffffffffffffffffffffffffffffffffffffffff166340c10f1933836040518363ffffffff1660e01b8152600401610b50929190610faa565b600060405180830381600087803b158015610b6a57600080fd5b505af1158015610b7e573d6000803e3d6000fd5b5050505060008054906101000a900473ffffffffffffffffffffffffffffffffffffffff1673ffffffffffffffffffffffffffffffffffffffff166340c10f1930836040518363ffffffff1660e01b8152600401610bdd929190610faa565b600060405180830381600087803b158015610bf757600080fd5b505af1158015610c0b573d6000803e3d6000fd5b5050505050565b600080fd5b600073ffffffffffffffffffffffffffffffffffffffff82169050919050565b6000610c4282610c17565b9050919050565b610c5281610c37565b8114610c5d57600080fd5b50565b600081359050610c6f81610c49565b92915050565b600060208284031215610c8b57610c8a610c12565b5b6000610c9984828501610c60565b91505092915050565b6000819050919050565b610cb581610ca2565b82525050565b6000602082019050610cd06000830184610cac565b92915050565b610cdf81610ca2565b8114610cea57600080fd5b50565b600081359050610cfc81610cd6565b92915050565b600060208284031215610d1857610d17610c12565b5b6000610d2684828501610ced565b91505092915050565b6000819050919050565b6000610d54610d4f610d4a84610c17565b610d2f565b610c17565b9050919050565b6000610d6682610d39565b9050919050565b6000610d7882610d5b565b9050919050565b610d8881610d6d565b82525050565b6000602082019050610da36000830184610d7f565b92915050565b6000610db482610d5b565b9050919050565b610dc481610da9565b82525050565b6000602082019050610ddf6000830184610dbb565b92915050565b7f4e487b7100000000000000000000000000000000000000000000000000000000600052601160045260246000fd5b6000610e1f82610ca2565b9150610e2a83610ca2565b9250828203905081811115610e4257610e41610de5565b5b92915050565b6000610e5382610ca2565b9150610e5e83610ca2565b9250828202610e6c81610ca2565b91508282048414831517610e8357610e82610de5565b5b5092915050565b7f4e487b7100000000000000000000000000000000000000000000000000000000600052601260045260246000fd5b6000610ec482610ca2565b9150610ecf83610ca2565b925082610edf57610ede610e8a565b5b828204905092915050565b6000610ef582610ca2565b9150610f0083610ca2565b9250828201905080821115610f1857610f17610de5565b5b92915050565b600082825260208201905092915050565b7f4e6f20616d6f756e74207374616b656400000000000000000000000000000000600082015250565b6000610f65601083610f1e565b9150610f7082610f2f565b602082019050919050565b60006020820190508181036000830152610f9481610f58565b9050919050565b610fa481610c37565b82525050565b6000604082019050610fbf6000830185610f9b565b610fcc6020830184610cac565b9392505050565b6000602082019050610fe86000830184610f9b565b92915050565b600081519050610ffd81610cd6565b92915050565b60006020828403121561101957611018610c12565b5b600061102784828501610fee565b9150509291505056fea2646970667358221220df4f0c8bbd638c258fbaa3ba52abfe7cedd99d66a628fe0940b912334907a7c064736f6c63430008180033",
  "devdoc": {
    "kind": "dev",
    "methods": {},
    "version": 1
  },
  "userdoc": {
    "kind": "user",
    "methods": {},
    "version": 1
  },
  "storageLayout": {
    "storage": [
      {
        "astId": 1263,
        "contract": "contracts/Restaking2.sol:Restaking2",
        "label": "myToken",
        "offset": 0,
        "slot": "0",
        "type": "t_contract(Mytoken)824"
      },
      {
        "astId": 1266,
        "contract": "contracts/Restaking2.sol:Restaking2",
        "label": "anotherToken",
        "offset": 0,
        "slot": "1",
        "type": "t_contract(Mytoken2)891"
      },
      {
        "astId": 1287,
        "contract": "contracts/Restaking2.sol:Restaking2",
        "label": "RewardRate",
        "offset": 0,
        "slot": "2",
        "type": "t_uint256"
      },
      {
        "astId": 1289,
        "contract": "contracts/Restaking2.sol:Restaking2",
        "label": "s_totalSupply",
        "offset": 0,
        "slot": "3",
        "type": "t_uint256"
      },
      {
        "astId": 1291,
        "contract": "contracts/Restaking2.sol:Restaking2",
        "label": "s_lastUpdateTime",
        "offset": 0,
        "slot": "4",
        "type": "t_uint256"
      },
      {
        "astId": 1293,
        "contract": "contracts/Restaking2.sol:Restaking2",
        "label": "s_rewardPerTokenStored",
        "offset": 0,
        "slot": "5",
        "type": "t_uint256"
      },
      {
        "astId": 1296,
        "contract": "contracts/Restaking2.sol:Restaking2",
        "label": "unboundingPeriod",
        "offset": 0,
        "slot": "6",
        "type": "t_uint256"
      },
      {
        "astId": 1300,
        "contract": "contracts/Restaking2.sol:Restaking2",
        "label": "s_userStakedAmount",
        "offset": 0,
        "slot": "7",
        "type": "t_mapping(t_address,t_uint256)"
      },
      {
        "astId": 1304,
        "contract": "contracts/Restaking2.sol:Restaking2",
        "label": "s_rewards",
        "offset": 0,
        "slot": "8",
        "type": "t_mapping(t_address,t_uint256)"
      },
      {
        "astId": 1308,
        "contract": "contracts/Restaking2.sol:Restaking2",
        "label": "s_userRewardsPerToken_Paid",
        "offset": 0,
        "slot": "9",
        "type": "t_mapping(t_address,t_uint256)"
      },
      {
        "astId": 1312,
        "contract": "contracts/Restaking2.sol:Restaking2",
        "label": "withdrawTimeStamp",
        "offset": 0,
        "slot": "10",
        "type": "t_mapping(t_address,t_uint256)"
      },
      {
        "astId": 1316,
        "contract": "contracts/Restaking2.sol:Restaking2",
        "label": "StakersBalance",
        "offset": 0,
        "slot": "11",
        "type": "t_mapping(t_address,t_uint256)"
      },
      {
        "astId": 1502,
        "contract": "contracts/Restaking2.sol:Restaking2",
        "label": "unstakeTimestamp",
        "offset": 0,
        "slot": "12",
        "type": "t_uint256"
      }
    ],
    "types": {
      "t_address": {
        "encoding": "inplace",
        "label": "address",
        "numberOfBytes": "20"
      },
      "t_contract(Mytoken)824": {
        "encoding": "inplace",
        "label": "contract Mytoken",
        "numberOfBytes": "20"
      },
      "t_contract(Mytoken2)891": {
        "encoding": "inplace",
        "label": "contract Mytoken2",
        "numberOfBytes": "20"
      },
      "t_mapping(t_address,t_uint256)": {
        "encoding": "mapping",
        "key": "t_address",
        "label": "mapping(address => uint256)",
        "numberOfBytes": "32",
        "value": "t_uint256"
      },
      "t_uint256": {
        "encoding": "inplace",
        "label": "uint256",
        "numberOfBytes": "32"
      }
    }
  }
}