{
  "address": "0xc56108Dfc6D013C78e5E87fbA488ae19Bc2B8F2D",
  "abi": [
    {
      "inputs": [
        {
          "internalType": "contract Mytoken",
          "name": "_myToken",
          "type": "address"
        },
        {
          "internalType": "contract Mytoken1",
          "name": "_anotherToken",
          "type": "address"
        }
      ],
      "stateMutability": "nonpayable",
      "type": "constructor"
    },
    {
      "inputs": [],
      "name": "claimReward__transferFailed",
      "type": "error"
    },
    {
      "inputs": [],
      "name": "stake__transferFailed",
      "type": "error"
    },
    {
      "inputs": [],
      "name": "staking__needMoreThanZero",
      "type": "error"
    },
    {
      "inputs": [],
      "name": "unstakeNot_called",
      "type": "error"
    },
    {
      "inputs": [],
      "name": "waitingPeriod_notCompleted",
      "type": "error"
    },
    {
      "inputs": [],
      "name": "withdraw__transferFailed",
      "type": "error"
    },
    {
      "anonymous": false,
      "inputs": [
        {
          "indexed": true,
          "internalType": "address",
          "name": "user",
          "type": "address"
        },
        {
          "indexed": true,
          "internalType": "uint256",
          "name": "amount",
          "type": "uint256"
        }
      ],
      "name": "RewardsClaimed",
      "type": "event"
    },
    {
      "anonymous": false,
      "inputs": [
        {
          "indexed": true,
          "internalType": "address",
          "name": "user",
          "type": "address"
        },
        {
          "indexed": true,
          "internalType": "uint256",
          "name": "amount",
          "type": "uint256"
        }
      ],
      "name": "Staked",
      "type": "event"
    },
    {
      "anonymous": false,
      "inputs": [
        {
          "indexed": true,
          "internalType": "address",
          "name": "user",
          "type": "address"
        },
        {
          "indexed": true,
          "internalType": "uint256",
          "name": "amount",
          "type": "uint256"
        }
      ],
      "name": "WithdrewStake",
      "type": "event"
    },
    {
      "inputs": [],
      "name": "RewardRate",
      "outputs": [
        {
          "internalType": "uint256",
          "name": "",
          "type": "uint256"
        }
      ],
      "stateMutability": "view",
      "type": "function"
    },
    {
      "inputs": [
        {
          "internalType": "address",
          "name": "",
          "type": "address"
        }
      ],
      "name": "StakersBalance",
      "outputs": [
        {
          "internalType": "uint256",
          "name": "",
          "type": "uint256"
        }
      ],
      "stateMutability": "view",
      "type": "function"
    },
    {
      "inputs": [],
      "name": "anotherToken",
      "outputs": [
        {
          "internalType": "contract Mytoken1",
          "name": "",
          "type": "address"
        }
      ],
      "stateMutability": "view",
      "type": "function"
    },
    {
      "inputs": [
        {
          "internalType": "address",
          "name": "account",
          "type": "address"
        }
      ],
      "name": "earned",
      "outputs": [
        {
          "internalType": "uint256",
          "name": "",
          "type": "uint256"
        }
      ],
      "stateMutability": "view",
      "type": "function"
    },
    {
      "inputs": [],
      "name": "getAnotherTokenBalance",
      "outputs": [
        {
          "internalType": "uint256",
          "name": "",
          "type": "uint256"
        }
      ],
      "stateMutability": "view",
      "type": "function"
    },
    {
      "inputs": [
        {
          "internalType": "uint256",
          "name": "amount",
          "type": "uint256"
        }
      ],
      "name": "mintTokensForStacker",
      "outputs": [],
      "stateMutability": "nonpayable",
      "type": "function"
    },
    {
      "inputs": [],
      "name": "myToken",
      "outputs": [
        {
          "internalType": "contract Mytoken",
          "name": "",
          "type": "address"
        }
      ],
      "stateMutability": "view",
      "type": "function"
    },
    {
      "inputs": [],
      "name": "rewardPerToken",
      "outputs": [
        {
          "internalType": "uint256",
          "name": "",
          "type": "uint256"
        }
      ],
      "stateMutability": "view",
      "type": "function"
    },
    {
      "inputs": [],
      "name": "s_lastUpdateTime",
      "outputs": [
        {
          "internalType": "uint256",
          "name": "",
          "type": "uint256"
        }
      ],
      "stateMutability": "view",
      "type": "function"
    },
    {
      "inputs": [],
      "name": "s_rewardPerTokenStored",
      "outputs": [
        {
          "internalType": "uint256",
          "name": "",
          "type": "uint256"
        }
      ],
      "stateMutability": "view",
      "type": "function"
    },
    {
      "inputs": [],
      "name": "s_totalSupply",
      "outputs": [
        {
          "internalType": "uint256",
          "name": "",
          "type": "uint256"
        }
      ],
      "stateMutability": "view",
      "type": "function"
    },
    {
      "inputs": [
        {
          "internalType": "uint256",
          "name": "_amount",
          "type": "uint256"
        }
      ],
      "name": "transferTokens",
      "outputs": [],
      "stateMutability": "nonpayable",
      "type": "function"
    },
    {
      "inputs": [],
      "name": "unboundingPeriod",
      "outputs": [
        {
          "internalType": "uint256",
          "name": "",
          "type": "uint256"
        }
      ],
      "stateMutability": "view",
      "type": "function"
    },
    {
      "inputs": [],
      "name": "unstake",
      "outputs": [],
      "stateMutability": "nonpayable",
      "type": "function"
    },
    {
      "inputs": [],
      "name": "unstakeTimestamp",
      "outputs": [
        {
          "internalType": "uint256",
          "name": "",
          "type": "uint256"
        }
      ],
      "stateMutability": "view",
      "type": "function"
    },
    {
      "inputs": [
        {
          "internalType": "uint256",
          "name": "amount",
          "type": "uint256"
        }
      ],
      "name": "withdraw",
      "outputs": [],
      "stateMutability": "nonpayable",
      "type": "function"
    }
  ],
  "transactionHash": "0x61ad0cbd4022fff53f5f264dc665156a6e607d03f9ee7763add88bbbbc6bf638",
  "args": [
    "0x5b052A4ef37e5Bb53cfC689C2767f4a8Fc375084",
    "0x7e5d8f52054170b2f556d633cd76a207177Ec7fb"
  ],
  "numDeployments": 3,
  "solcInputHash": "adf3ac74f1a8f038282b494a6ba9576a",
  "bytecode": "0x60806040526064600255670de0b6b3a76400006006553480156200002257600080fd5b506040516200121038038062001210833981810160405281019062000048919062000194565b816000806101000a81548173ffffffffffffffffffffffffffffffffffffffff021916908373ffffffffffffffffffffffffffffffffffffffff16021790555080600160006101000a81548173ffffffffffffffffffffffffffffffffffffffff021916908373ffffffffffffffffffffffffffffffffffffffff1602179055505050620001db565b600080fd5b600073ffffffffffffffffffffffffffffffffffffffff82169050919050565b60006200010382620000d6565b9050919050565b60006200011782620000f6565b9050919050565b62000129816200010a565b81146200013557600080fd5b50565b60008151905062000149816200011e565b92915050565b60006200015c82620000f6565b9050919050565b6200016e816200014f565b81146200017a57600080fd5b50565b6000815190506200018e8162000163565b92915050565b60008060408385031215620001ae57620001ad620000d1565b5b6000620001be8582860162000138565b9250506020620001d1858286016200017d565b9150509250929050565b61102580620001eb6000396000f3fe608060405234801561001057600080fd5b50600436106100ff5760003560e01c8063852b96c711610097578063bd37d96711610066578063bd37d96714610278578063ccc23e5214610296578063cd3daf9d146102b4578063fd9a4e61146102d2576100ff565b8063852b96c7146101ee5780638a1833a51461021e5780639a9b20e31461023c578063b8fcf9371461025a576100ff565b80634bd989ca116100d35780634bd989ca146101785780636a74a0fc146101945780636aa0838f146101b257806375edb325146101d0576100ff565b80628cc262146101045780632def6620146101345780632e1a7d4d1461013e578063304ac91b1461015a575b600080fd5b61011e60048036038101906101199190610c34565b6102ee565b60405161012b9190610c7a565b60405180910390f35b61013c610407565b005b61015860048036038101906101539190610cc1565b61049c565b005b610162610768565b60405161016f9190610c7a565b60405180910390f35b610192600480360381019061018d9190610cc1565b61076e565b005b61019c6107fe565b6040516101a99190610c7a565b60405180910390f35b6101ba610804565b6040516101c79190610c7a565b60405180910390f35b6101d861080a565b6040516101e59190610c7a565b60405180910390f35b61020860048036038101906102039190610c34565b610810565b6040516102159190610c7a565b60405180910390f35b610226610828565b6040516102339190610c7a565b60405180910390f35b61024461082e565b6040516102519190610c7a565b60405180910390f35b6102626108d0565b60405161026f9190610d4d565b60405180910390f35b6102806108f4565b60405161028d9190610d89565b60405180910390f35b61029e61091a565b6040516102ab9190610c7a565b60405180910390f35b6102bc610920565b6040516102c99190610c7a565b60405180910390f35b6102ec60048036038101906102e79190610cc1565b610983565b005b600080600760008473ffffffffffffffffffffffffffffffffffffffff1673ffffffffffffffffffffffffffffffffffffffff1681526020019081526020016000205490506000600960008573ffffffffffffffffffffffffffffffffffffffff1673ffffffffffffffffffffffffffffffffffffffff1681526020019081526020016000205490506000610381610920565b90506000600860008773ffffffffffffffffffffffffffffffffffffffff1673ffffffffffffffffffffffffffffffffffffffff16815260200190815260200160002054905080670de0b6b3a764000084846103dd9190610dd3565b866103e89190610e07565b6103f29190610e78565b6103fc9190610ea9565b945050505050919050565b6000600760003373ffffffffffffffffffffffffffffffffffffffff1673ffffffffffffffffffffffffffffffffffffffff16815260200190815260200160002054101561048a576040517f08c379a000000000000000000000000000000000000000000000000000000000815260040161048190610f3a565b60405180910390fd5b42600c819055506103e8600681905550565b6104a4610920565b600581905550426004819055506104ba336102ee565b600860003373ffffffffffffffffffffffffffffffffffffffff1673ffffffffffffffffffffffffffffffffffffffff16815260200190815260200160002081905550600554600960003373ffffffffffffffffffffffffffffffffffffffff1673ffffffffffffffffffffffffffffffffffffffff16815260200190815260200160002081905550670de0b6b3a7640000600654146107335742600a60003373ffffffffffffffffffffffffffffffffffffffff1673ffffffffffffffffffffffffffffffffffffffff1681526020019081526020016000208190555080600760003373ffffffffffffffffffffffffffffffffffffffff1673ffffffffffffffffffffffffffffffffffffffff168152602001908152602001600020546105e39190610dd3565b600760003373ffffffffffffffffffffffffffffffffffffffff1673ffffffffffffffffffffffffffffffffffffffff16815260200190815260200160002081905550806003546106349190610dd3565b600381905550803373ffffffffffffffffffffffffffffffffffffffff167f4cb6da433ea55f6e302b7bdbfeed740816a42301cde7f5bac5dff2b34037637460405160405180910390a360008054906101000a900473ffffffffffffffffffffffffffffffffffffffff1673ffffffffffffffffffffffffffffffffffffffff166340c10f193383600a6001866106cb9190610e07565b6106d59190610e78565b6106df9190610ea9565b6040518363ffffffff1660e01b81526004016106fc929190610f69565b600060405180830381600087803b15801561071657600080fd5b505af115801561072a573d6000803e3d6000fd5b50505050610765565b6040517f1f2dcc7600000000000000000000000000000000000000000000000000000000815260040160405180910390fd5b50565b60055481565b60008054906101000a900473ffffffffffffffffffffffffffffffffffffffff1673ffffffffffffffffffffffffffffffffffffffff166340c10f1933836040518363ffffffff1660e01b81526004016107c9929190610f69565b600060405180830381600087803b1580156107e357600080fd5b505af11580156107f7573d6000803e3d6000fd5b5050505050565b60035481565b60045481565b600c5481565b600b6020528060005260406000206000915090505481565b60025481565b60008060009054906101000a900473ffffffffffffffffffffffffffffffffffffffff1673ffffffffffffffffffffffffffffffffffffffff166370a08231306040518263ffffffff1660e01b815260040161088a9190610f92565b602060405180830381865afa1580156108a7573d6000803e3d6000fd5b505050506040513d601f19601f820116820180604052508101906108cb9190610fc2565b905090565b60008054906101000a900473ffffffffffffffffffffffffffffffffffffffff1681565b600160009054906101000a900473ffffffffffffffffffffffffffffffffffffffff1681565b60065481565b60008060035403610935576005549050610980565b600354670de0b6b3a7640000600254600454426109529190610dd3565b61095c9190610e07565b6109669190610e07565b6109709190610e78565b60055461097d9190610ea9565b90505b90565b80600760003373ffffffffffffffffffffffffffffffffffffffff1673ffffffffffffffffffffffffffffffffffffffff168152602001908152602001600020546109ce9190610ea9565b600760003373ffffffffffffffffffffffffffffffffffffffff1673ffffffffffffffffffffffffffffffffffffffff1681526020019081526020016000208190555080600354610a1f9190610ea9565b60038190555060008054906101000a900473ffffffffffffffffffffffffffffffffffffffff1673ffffffffffffffffffffffffffffffffffffffff166340c10f1930836040518363ffffffff1660e01b8152600401610a80929190610f69565b600060405180830381600087803b158015610a9a57600080fd5b505af1158015610aae573d6000803e3d6000fd5b5050505060008054906101000a900473ffffffffffffffffffffffffffffffffffffffff1673ffffffffffffffffffffffffffffffffffffffff16639dc29fac33836040518363ffffffff1660e01b8152600401610b0d929190610f69565b600060405180830381600087803b158015610b2757600080fd5b505af1158015610b3b573d6000803e3d6000fd5b50505050600160009054906101000a900473ffffffffffffffffffffffffffffffffffffffff1673ffffffffffffffffffffffffffffffffffffffff166340c10f1933836040518363ffffffff1660e01b8152600401610b9c929190610f69565b600060405180830381600087803b158015610bb657600080fd5b505af1158015610bca573d6000803e3d6000fd5b5050505050565b600080fd5b600073ffffffffffffffffffffffffffffffffffffffff82169050919050565b6000610c0182610bd6565b9050919050565b610c1181610bf6565b8114610c1c57600080fd5b50565b600081359050610c2e81610c08565b92915050565b600060208284031215610c4a57610c49610bd1565b5b6000610c5884828501610c1f565b91505092915050565b6000819050919050565b610c7481610c61565b82525050565b6000602082019050610c8f6000830184610c6b565b92915050565b610c9e81610c61565b8114610ca957600080fd5b50565b600081359050610cbb81610c95565b92915050565b600060208284031215610cd757610cd6610bd1565b5b6000610ce584828501610cac565b91505092915050565b6000819050919050565b6000610d13610d0e610d0984610bd6565b610cee565b610bd6565b9050919050565b6000610d2582610cf8565b9050919050565b6000610d3782610d1a565b9050919050565b610d4781610d2c565b82525050565b6000602082019050610d626000830184610d3e565b92915050565b6000610d7382610d1a565b9050919050565b610d8381610d68565b82525050565b6000602082019050610d9e6000830184610d7a565b92915050565b7f4e487b7100000000000000000000000000000000000000000000000000000000600052601160045260246000fd5b6000610dde82610c61565b9150610de983610c61565b9250828203905081811115610e0157610e00610da4565b5b92915050565b6000610e1282610c61565b9150610e1d83610c61565b9250828202610e2b81610c61565b91508282048414831517610e4257610e41610da4565b5b5092915050565b7f4e487b7100000000000000000000000000000000000000000000000000000000600052601260045260246000fd5b6000610e8382610c61565b9150610e8e83610c61565b925082610e9e57610e9d610e49565b5b828204905092915050565b6000610eb482610c61565b9150610ebf83610c61565b9250828201905080821115610ed757610ed6610da4565b5b92915050565b600082825260208201905092915050565b7f4e6f20616d6f756e74207374616b656400000000000000000000000000000000600082015250565b6000610f24601083610edd565b9150610f2f82610eee565b602082019050919050565b60006020820190508181036000830152610f5381610f17565b9050919050565b610f6381610bf6565b82525050565b6000604082019050610f7e6000830185610f5a565b610f8b6020830184610c6b565b9392505050565b6000602082019050610fa76000830184610f5a565b92915050565b600081519050610fbc81610c95565b92915050565b600060208284031215610fd857610fd7610bd1565b5b6000610fe684828501610fad565b9150509291505056fea26469706673582212202196de724a2c7e2dfb98479f00885cdd3ffe67ffc4f237db8790f13fc571706964736f6c63430008180033",
  "devdoc": {
    "kind": "dev",
    "methods": {},
    "version": 1
  },
  "userdoc": {
    "kind": "user",
    "methods": {},
    "version": 1
  },
  "storageLayout": {
    "storage": [
      {
        "astId": 1015,
        "contract": "contracts/Restaking1.sol:Restaking1",
        "label": "myToken",
        "offset": 0,
        "slot": "0",
        "type": "t_contract(Mytoken)941"
      },
      {
        "astId": 1018,
        "contract": "contracts/Restaking1.sol:Restaking1",
        "label": "anotherToken",
        "offset": 0,
        "slot": "1",
        "type": "t_contract(Mytoken1)968"
      },
      {
        "astId": 1039,
        "contract": "contracts/Restaking1.sol:Restaking1",
        "label": "RewardRate",
        "offset": 0,
        "slot": "2",
        "type": "t_uint256"
      },
      {
        "astId": 1041,
        "contract": "contracts/Restaking1.sol:Restaking1",
        "label": "s_totalSupply",
        "offset": 0,
        "slot": "3",
        "type": "t_uint256"
      },
      {
        "astId": 1043,
        "contract": "contracts/Restaking1.sol:Restaking1",
        "label": "s_lastUpdateTime",
        "offset": 0,
        "slot": "4",
        "type": "t_uint256"
      },
      {
        "astId": 1045,
        "contract": "contracts/Restaking1.sol:Restaking1",
        "label": "s_rewardPerTokenStored",
        "offset": 0,
        "slot": "5",
        "type": "t_uint256"
      },
      {
        "astId": 1048,
        "contract": "contracts/Restaking1.sol:Restaking1",
        "label": "unboundingPeriod",
        "offset": 0,
        "slot": "6",
        "type": "t_uint256"
      },
      {
        "astId": 1052,
        "contract": "contracts/Restaking1.sol:Restaking1",
        "label": "s_userStakedAmount",
        "offset": 0,
        "slot": "7",
        "type": "t_mapping(t_address,t_uint256)"
      },
      {
        "astId": 1056,
        "contract": "contracts/Restaking1.sol:Restaking1",
        "label": "s_rewards",
        "offset": 0,
        "slot": "8",
        "type": "t_mapping(t_address,t_uint256)"
      },
      {
        "astId": 1060,
        "contract": "contracts/Restaking1.sol:Restaking1",
        "label": "s_userRewardsPerToken_Paid",
        "offset": 0,
        "slot": "9",
        "type": "t_mapping(t_address,t_uint256)"
      },
      {
        "astId": 1064,
        "contract": "contracts/Restaking1.sol:Restaking1",
        "label": "withdrawTimeStamp",
        "offset": 0,
        "slot": "10",
        "type": "t_mapping(t_address,t_uint256)"
      },
      {
        "astId": 1068,
        "contract": "contracts/Restaking1.sol:Restaking1",
        "label": "StakersBalance",
        "offset": 0,
        "slot": "11",
        "type": "t_mapping(t_address,t_uint256)"
      },
      {
        "astId": 1254,
        "contract": "contracts/Restaking1.sol:Restaking1",
        "label": "unstakeTimestamp",
        "offset": 0,
        "slot": "12",
        "type": "t_uint256"
      }
    ],
    "types": {
      "t_address": {
        "encoding": "inplace",
        "label": "address",
        "numberOfBytes": "20"
      },
      "t_contract(Mytoken)941": {
        "encoding": "inplace",
        "label": "contract Mytoken",
        "numberOfBytes": "20"
      },
      "t_contract(Mytoken1)968": {
        "encoding": "inplace",
        "label": "contract Mytoken1",
        "numberOfBytes": "20"
      },
      "t_mapping(t_address,t_uint256)": {
        "encoding": "mapping",
        "key": "t_address",
        "label": "mapping(address => uint256)",
        "numberOfBytes": "32",
        "value": "t_uint256"
      },
      "t_uint256": {
        "encoding": "inplace",
        "label": "uint256",
        "numberOfBytes": "32"
      }
    }
  }
}