{
  "address": "0xcc239dF54553B95DbEe97Cc4251Cd11BaeA9eb37",
  "abi": [
    {
      "inputs": [
        {
          "internalType": "contract Mytoken",
          "name": "_token",
          "type": "address"
        }
      ],
      "stateMutability": "nonpayable",
      "type": "constructor"
    },
    {
      "inputs": [],
      "name": "claimReward__transferFailed",
      "type": "error"
    },
    {
      "inputs": [],
      "name": "stake__transferFailed",
      "type": "error"
    },
    {
      "inputs": [],
      "name": "staking__needMoreThanZero",
      "type": "error"
    },
    {
      "inputs": [],
      "name": "unstakeNot_called",
      "type": "error"
    },
    {
      "inputs": [],
      "name": "waitingPeriod_notCompleted",
      "type": "error"
    },
    {
      "inputs": [],
      "name": "withdraw__transferFailed",
      "type": "error"
    },
    {
      "anonymous": false,
      "inputs": [
        {
          "indexed": true,
          "internalType": "address",
          "name": "user",
          "type": "address"
        },
        {
          "indexed": true,
          "internalType": "uint256",
          "name": "amount",
          "type": "uint256"
        }
      ],
      "name": "RewardsClaimed",
      "type": "event"
    },
    {
      "anonymous": false,
      "inputs": [
        {
          "indexed": true,
          "internalType": "address",
          "name": "user",
          "type": "address"
        },
        {
          "indexed": true,
          "internalType": "uint256",
          "name": "amount",
          "type": "uint256"
        }
      ],
      "name": "Staked",
      "type": "event"
    },
    {
      "anonymous": false,
      "inputs": [
        {
          "indexed": true,
          "internalType": "address",
          "name": "user",
          "type": "address"
        },
        {
          "indexed": true,
          "internalType": "uint256",
          "name": "amount",
          "type": "uint256"
        }
      ],
      "name": "WithdrewStake",
      "type": "event"
    },
    {
      "stateMutability": "payable",
      "type": "fallback"
    },
    {
      "inputs": [],
      "name": "RewardRate",
      "outputs": [
        {
          "internalType": "uint256",
          "name": "",
          "type": "uint256"
        }
      ],
      "stateMutability": "view",
      "type": "function"
    },
    {
      "inputs": [
        {
          "internalType": "address",
          "name": "",
          "type": "address"
        }
      ],
      "name": "StakersBalance",
      "outputs": [
        {
          "internalType": "uint256",
          "name": "",
          "type": "uint256"
        }
      ],
      "stateMutability": "view",
      "type": "function"
    },
    {
      "inputs": [
        {
          "internalType": "address",
          "name": "account",
          "type": "address"
        }
      ],
      "name": "earned",
      "outputs": [
        {
          "internalType": "uint256",
          "name": "",
          "type": "uint256"
        }
      ],
      "stateMutability": "view",
      "type": "function"
    },
    {
      "inputs": [],
      "name": "myToken",
      "outputs": [
        {
          "internalType": "contract Mytoken",
          "name": "",
          "type": "address"
        }
      ],
      "stateMutability": "view",
      "type": "function"
    },
    {
      "inputs": [],
      "name": "rewardPerToken",
      "outputs": [
        {
          "internalType": "uint256",
          "name": "",
          "type": "uint256"
        }
      ],
      "stateMutability": "view",
      "type": "function"
    },
    {
      "inputs": [],
      "name": "s_lastUpdateTime",
      "outputs": [
        {
          "internalType": "uint256",
          "name": "",
          "type": "uint256"
        }
      ],
      "stateMutability": "view",
      "type": "function"
    },
    {
      "inputs": [],
      "name": "s_rewardPerTokenStored",
      "outputs": [
        {
          "internalType": "uint256",
          "name": "",
          "type": "uint256"
        }
      ],
      "stateMutability": "view",
      "type": "function"
    },
    {
      "inputs": [],
      "name": "s_totalSupply",
      "outputs": [
        {
          "internalType": "uint256",
          "name": "",
          "type": "uint256"
        }
      ],
      "stateMutability": "view",
      "type": "function"
    },
    {
      "inputs": [],
      "name": "stake",
      "outputs": [],
      "stateMutability": "payable",
      "type": "function"
    },
    {
      "inputs": [],
      "name": "unboundingPeriod",
      "outputs": [
        {
          "internalType": "uint256",
          "name": "",
          "type": "uint256"
        }
      ],
      "stateMutability": "view",
      "type": "function"
    },
    {
      "inputs": [],
      "name": "unstake",
      "outputs": [],
      "stateMutability": "nonpayable",
      "type": "function"
    },
    {
      "inputs": [],
      "name": "unstakeTimestamp",
      "outputs": [
        {
          "internalType": "uint256",
          "name": "",
          "type": "uint256"
        }
      ],
      "stateMutability": "view",
      "type": "function"
    },
    {
      "inputs": [
        {
          "internalType": "uint256",
          "name": "amount",
          "type": "uint256"
        }
      ],
      "name": "withdraw",
      "outputs": [],
      "stateMutability": "nonpayable",
      "type": "function"
    },
    {
      "stateMutability": "payable",
      "type": "receive"
    }
  ],
  "transactionHash": "0x4cf1ed17af2eb9538adc6d6aa3901aa852cf36d14718d2b79bac0bc0f514ab64",
  "args": [
    "0x5b052A4ef37e5Bb53cfC689C2767f4a8Fc375084"
  ],
  "numDeployments": 3,
  "solcInputHash": "26aa146accf481a05db565985fe47571",
  "bytecode": "0x60806040526064600255670de0b6b3a76400006006553480156200002257600080fd5b506040516200127f3803806200127f833981810160405281019062000048919062000116565b600160008190555080600160006101000a81548173ffffffffffffffffffffffffffffffffffffffff021916908373ffffffffffffffffffffffffffffffffffffffff1602179055505062000148565b600080fd5b600073ffffffffffffffffffffffffffffffffffffffff82169050919050565b6000620000ca826200009d565b9050919050565b6000620000de82620000bd565b9050919050565b620000f081620000d1565b8114620000fc57600080fd5b50565b6000815190506200011081620000e5565b92915050565b6000602082840312156200012f576200012e62000098565b5b60006200013f84828501620000ff565b91505092915050565b61112780620001586000396000f3fe6080604052600436106100c55760003560e01c80636aa0838f1161007f5780638a1833a5116100595780638a1833a51461023e578063b8fcf93714610269578063ccc23e5214610294578063cd3daf9d146102bf576100cc565b80636aa0838f146101ab57806375edb325146101d6578063852b96c714610201576100cc565b80628cc262146100ce5780632def66201461010b5780632e1a7d4d14610122578063304ac91b1461014b5780633a4b66f1146101765780636a74a0fc14610180576100cc565b366100cc57005b005b3480156100da57600080fd5b506100f560048036038101906100f09190610cb1565b6102ea565b6040516101029190610cf7565b60405180910390f35b34801561011757600080fd5b50610120610403565b005b34801561012e57600080fd5b5061014960048036038101906101449190610d3e565b610498565b005b34801561015757600080fd5b506101606107b3565b60405161016d9190610cf7565b60405180910390f35b61017e6107b9565b005b34801561018c57600080fd5b50610195610b36565b6040516101a29190610cf7565b60405180910390f35b3480156101b757600080fd5b506101c0610b3c565b6040516101cd9190610cf7565b60405180910390f35b3480156101e257600080fd5b506101eb610b42565b6040516101f89190610cf7565b60405180910390f35b34801561020d57600080fd5b5061022860048036038101906102239190610cb1565b610b48565b6040516102359190610cf7565b60405180910390f35b34801561024a57600080fd5b50610253610b60565b6040516102609190610cf7565b60405180910390f35b34801561027557600080fd5b5061027e610b66565b60405161028b9190610dca565b60405180910390f35b3480156102a057600080fd5b506102a9610b8c565b6040516102b69190610cf7565b60405180910390f35b3480156102cb57600080fd5b506102d4610b92565b6040516102e19190610cf7565b60405180910390f35b600080600760008473ffffffffffffffffffffffffffffffffffffffff1673ffffffffffffffffffffffffffffffffffffffff1681526020019081526020016000205490506000600960008573ffffffffffffffffffffffffffffffffffffffff1673ffffffffffffffffffffffffffffffffffffffff168152602001908152602001600020549050600061037d610b92565b90506000600860008773ffffffffffffffffffffffffffffffffffffffff1673ffffffffffffffffffffffffffffffffffffffff16815260200190815260200160002054905080670de0b6b3a764000084846103d99190610e14565b866103e49190610e48565b6103ee9190610eb9565b6103f89190610eea565b945050505050919050565b6000600760003373ffffffffffffffffffffffffffffffffffffffff1673ffffffffffffffffffffffffffffffffffffffff168152602001908152602001600020541015610486576040517f08c379a000000000000000000000000000000000000000000000000000000000815260040161047d90610f7b565b60405180910390fd5b42600c819055506103e8600681905550565b6104a0610b92565b600581905550426004819055506104b6336102ea565b600860003373ffffffffffffffffffffffffffffffffffffffff1673ffffffffffffffffffffffffffffffffffffffff16815260200190815260200160002081905550600554600960003373ffffffffffffffffffffffffffffffffffffffff1673ffffffffffffffffffffffffffffffffffffffff16815260200190815260200160002081905550670de0b6b3a764000060065414158015610598575080600760003373ffffffffffffffffffffffffffffffffffffffff1673ffffffffffffffffffffffffffffffffffffffff1681526020019081526020016000205410155b1561077e5742600a60003373ffffffffffffffffffffffffffffffffffffffff1673ffffffffffffffffffffffffffffffffffffffff1681526020019081526020016000208190555080600760003373ffffffffffffffffffffffffffffffffffffffff1673ffffffffffffffffffffffffffffffffffffffff1681526020019081526020016000205461062c9190610e14565b600760003373ffffffffffffffffffffffffffffffffffffffff1673ffffffffffffffffffffffffffffffffffffffff168152602001908152602001600020819055508060035461067d9190610e14565b600381905550803373ffffffffffffffffffffffffffffffffffffffff167f4cb6da433ea55f6e302b7bdbfeed740816a42301cde7f5bac5dff2b34037637460405160405180910390a3600160009054906101000a900473ffffffffffffffffffffffffffffffffffffffff1673ffffffffffffffffffffffffffffffffffffffff166340c10f193383600a6001866107169190610e48565b6107209190610eb9565b61072a9190610eea565b6040518363ffffffff1660e01b8152600401610747929190610faa565b600060405180830381600087803b15801561076157600080fd5b505af1158015610775573d6000803e3d6000fd5b505050506107b0565b6040517f1f2dcc7600000000000000000000000000000000000000000000000000000000815260040160405180910390fd5b50565b60055481565b6107c1610b92565b600581905550426004819055506107d7336102ea565b600860003373ffffffffffffffffffffffffffffffffffffffff1673ffffffffffffffffffffffffffffffffffffffff16815260200190815260200160002081905550600554600960003373ffffffffffffffffffffffffffffffffffffffff1673ffffffffffffffffffffffffffffffffffffffff168152602001908152602001600020819055506000340361089a576040517fe5fbc37f00000000000000000000000000000000000000000000000000000000815260040160405180910390fd5b6108a2610bf5565b600034905080600760003373ffffffffffffffffffffffffffffffffffffffff1673ffffffffffffffffffffffffffffffffffffffff168152602001908152602001600020546108f29190610eea565b600760003373ffffffffffffffffffffffffffffffffffffffff1673ffffffffffffffffffffffffffffffffffffffff16815260200190815260200160002081905550806003546109439190610eea565b60038190555060003073ffffffffffffffffffffffffffffffffffffffff163460405161096f90611004565b60006040518083038185875af1925050503d80600081146109ac576040519150601f19603f3d011682016040523d82523d6000602084013e6109b1565b606091505b5050905034600760003373ffffffffffffffffffffffffffffffffffffffff1673ffffffffffffffffffffffffffffffffffffffff1681526020019081526020016000208190555080610a39576040517f08c379a0000000000000000000000000000000000000000000000000000000008152600401610a3090611065565b60405180910390fd5b6000606434605d610a4a9190610e48565b610a549190610eb9565b9050600160009054906101000a900473ffffffffffffffffffffffffffffffffffffffff1673ffffffffffffffffffffffffffffffffffffffff166340c10f1933836040518363ffffffff1660e01b8152600401610ab3929190610faa565b600060405180830381600087803b158015610acd57600080fd5b505af1158015610ae1573d6000803e3d6000fd5b50505050343373ffffffffffffffffffffffffffffffffffffffff167f9e71bc8eea02a63969f509818f2dafb9254532904319f9dbda79b67bd34a5f3d60405160405180910390a3505050610b34610c44565b565b60035481565b60045481565b600c5481565b600b6020528060005260406000206000915090505481565b60025481565b600160009054906101000a900473ffffffffffffffffffffffffffffffffffffffff1681565b60065481565b60008060035403610ba7576005549050610bf2565b600354670de0b6b3a764000060025460045442610bc49190610e14565b610bce9190610e48565b610bd89190610e48565b610be29190610eb9565b600554610bef9190610eea565b90505b90565b600260005403610c3a576040517f08c379a0000000000000000000000000000000000000000000000000000000008152600401610c31906110d1565b60405180910390fd5b6002600081905550565b6001600081905550565b600080fd5b600073ffffffffffffffffffffffffffffffffffffffff82169050919050565b6000610c7e82610c53565b9050919050565b610c8e81610c73565b8114610c9957600080fd5b50565b600081359050610cab81610c85565b92915050565b600060208284031215610cc757610cc6610c4e565b5b6000610cd584828501610c9c565b91505092915050565b6000819050919050565b610cf181610cde565b82525050565b6000602082019050610d0c6000830184610ce8565b92915050565b610d1b81610cde565b8114610d2657600080fd5b50565b600081359050610d3881610d12565b92915050565b600060208284031215610d5457610d53610c4e565b5b6000610d6284828501610d29565b91505092915050565b6000819050919050565b6000610d90610d8b610d8684610c53565b610d6b565b610c53565b9050919050565b6000610da282610d75565b9050919050565b6000610db482610d97565b9050919050565b610dc481610da9565b82525050565b6000602082019050610ddf6000830184610dbb565b92915050565b7f4e487b7100000000000000000000000000000000000000000000000000000000600052601160045260246000fd5b6000610e1f82610cde565b9150610e2a83610cde565b9250828203905081811115610e4257610e41610de5565b5b92915050565b6000610e5382610cde565b9150610e5e83610cde565b9250828202610e6c81610cde565b91508282048414831517610e8357610e82610de5565b5b5092915050565b7f4e487b7100000000000000000000000000000000000000000000000000000000600052601260045260246000fd5b6000610ec482610cde565b9150610ecf83610cde565b925082610edf57610ede610e8a565b5b828204905092915050565b6000610ef582610cde565b9150610f0083610cde565b9250828201905080821115610f1857610f17610de5565b5b92915050565b600082825260208201905092915050565b7f4e6f20616d6f756e74207374616b656400000000000000000000000000000000600082015250565b6000610f65601083610f1e565b9150610f7082610f2f565b602082019050919050565b60006020820190508181036000830152610f9481610f58565b9050919050565b610fa481610c73565b82525050565b6000604082019050610fbf6000830185610f9b565b610fcc6020830184610ce8565b9392505050565b600081905092915050565b50565b6000610fee600083610fd3565b9150610ff982610fde565b600082019050919050565b600061100f82610fe1565b9150819050919050565b7f4661696c656420746f2073656e64204574686572000000000000000000000000600082015250565b600061104f601483610f1e565b915061105a82611019565b602082019050919050565b6000602082019050818103600083015261107e81611042565b9050919050565b7f5265656e7472616e637947756172643a207265656e7472616e742063616c6c00600082015250565b60006110bb601f83610f1e565b91506110c682611085565b602082019050919050565b600060208201905081810360008301526110ea816110ae565b905091905056fea26469706673582212207b77d9136101915c5ce0c41c2e41ed8b87fb79ae27f8804e703196e91b3d58f264736f6c63430008180033",
  "devdoc": {
    "kind": "dev",
    "methods": {},
    "version": 1
  },
  "userdoc": {
    "kind": "user",
    "methods": {},
    "version": 1
  },
  "storageLayout": {
    "storage": [
      {
        "astId": 10,
        "contract": "contracts/Staking.sol:Staking",
        "label": "_status",
        "offset": 0,
        "slot": "0",
        "type": "t_uint256"
      },
      {
        "astId": 1353,
        "contract": "contracts/Staking.sol:Staking",
        "label": "myToken",
        "offset": 0,
        "slot": "1",
        "type": "t_contract(Mytoken)941"
      },
      {
        "astId": 1385,
        "contract": "contracts/Staking.sol:Staking",
        "label": "RewardRate",
        "offset": 0,
        "slot": "2",
        "type": "t_uint256"
      },
      {
        "astId": 1387,
        "contract": "contracts/Staking.sol:Staking",
        "label": "s_totalSupply",
        "offset": 0,
        "slot": "3",
        "type": "t_uint256"
      },
      {
        "astId": 1389,
        "contract": "contracts/Staking.sol:Staking",
        "label": "s_lastUpdateTime",
        "offset": 0,
        "slot": "4",
        "type": "t_uint256"
      },
      {
        "astId": 1391,
        "contract": "contracts/Staking.sol:Staking",
        "label": "s_rewardPerTokenStored",
        "offset": 0,
        "slot": "5",
        "type": "t_uint256"
      },
      {
        "astId": 1394,
        "contract": "contracts/Staking.sol:Staking",
        "label": "unboundingPeriod",
        "offset": 0,
        "slot": "6",
        "type": "t_uint256"
      },
      {
        "astId": 1398,
        "contract": "contracts/Staking.sol:Staking",
        "label": "s_userStakedAmount",
        "offset": 0,
        "slot": "7",
        "type": "t_mapping(t_address,t_uint256)"
      },
      {
        "astId": 1402,
        "contract": "contracts/Staking.sol:Staking",
        "label": "s_rewards",
        "offset": 0,
        "slot": "8",
        "type": "t_mapping(t_address,t_uint256)"
      },
      {
        "astId": 1406,
        "contract": "contracts/Staking.sol:Staking",
        "label": "s_userRewardsPerToken_Paid",
        "offset": 0,
        "slot": "9",
        "type": "t_mapping(t_address,t_uint256)"
      },
      {
        "astId": 1410,
        "contract": "contracts/Staking.sol:Staking",
        "label": "withdrawTimeStamp",
        "offset": 0,
        "slot": "10",
        "type": "t_mapping(t_address,t_uint256)"
      },
      {
        "astId": 1414,
        "contract": "contracts/Staking.sol:Staking",
        "label": "StakersBalance",
        "offset": 0,
        "slot": "11",
        "type": "t_mapping(t_address,t_uint256)"
      },
      {
        "astId": 1642,
        "contract": "contracts/Staking.sol:Staking",
        "label": "unstakeTimestamp",
        "offset": 0,
        "slot": "12",
        "type": "t_uint256"
      }
    ],
    "types": {
      "t_address": {
        "encoding": "inplace",
        "label": "address",
        "numberOfBytes": "20"
      },
      "t_contract(Mytoken)941": {
        "encoding": "inplace",
        "label": "contract Mytoken",
        "numberOfBytes": "20"
      },
      "t_mapping(t_address,t_uint256)": {
        "encoding": "mapping",
        "key": "t_address",
        "label": "mapping(address => uint256)",
        "numberOfBytes": "32",
        "value": "t_uint256"
      },
      "t_uint256": {
        "encoding": "inplace",
        "label": "uint256",
        "numberOfBytes": "32"
      }
    }
  }
}