{
  "address": "0x33f453F45C95913E86E418DAf77d18606a2341F0",
  "abi": [
    {
      "inputs": [
        {
          "internalType": "contract Mytoken",
          "name": "_token",
          "type": "address"
        }
      ],
      "stateMutability": "nonpayable",
      "type": "constructor"
    },
    {
      "inputs": [],
      "name": "claimReward__transferFailed",
      "type": "error"
    },
    {
      "inputs": [],
      "name": "stake__transferFailed",
      "type": "error"
    },
    {
      "inputs": [],
      "name": "staking__needMoreThanZero",
      "type": "error"
    },
    {
      "inputs": [],
      "name": "unstakeNot_called",
      "type": "error"
    },
    {
      "inputs": [],
      "name": "waitingPeriod_notCompleted",
      "type": "error"
    },
    {
      "inputs": [],
      "name": "withdraw__transferFailed",
      "type": "error"
    },
    {
      "anonymous": false,
      "inputs": [
        {
          "indexed": true,
          "internalType": "address",
          "name": "user",
          "type": "address"
        },
        {
          "indexed": true,
          "internalType": "uint256",
          "name": "amount",
          "type": "uint256"
        }
      ],
      "name": "RewardsClaimed",
      "type": "event"
    },
    {
      "anonymous": false,
      "inputs": [
        {
          "indexed": true,
          "internalType": "address",
          "name": "user",
          "type": "address"
        },
        {
          "indexed": true,
          "internalType": "uint256",
          "name": "amount",
          "type": "uint256"
        }
      ],
      "name": "Staked",
      "type": "event"
    },
    {
      "anonymous": false,
      "inputs": [
        {
          "indexed": true,
          "internalType": "address",
          "name": "user",
          "type": "address"
        },
        {
          "indexed": true,
          "internalType": "uint256",
          "name": "amount",
          "type": "uint256"
        },
        {
          "indexed": true,
          "internalType": "uint256",
          "name": "timstamp",
          "type": "uint256"
        }
      ],
      "name": "WithdrewStake",
      "type": "event"
    },
    {
      "stateMutability": "payable",
      "type": "fallback"
    },
    {
      "inputs": [],
      "name": "RewardRate",
      "outputs": [
        {
          "internalType": "uint256",
          "name": "",
          "type": "uint256"
        }
      ],
      "stateMutability": "view",
      "type": "function"
    },
    {
      "inputs": [
        {
          "internalType": "address",
          "name": "",
          "type": "address"
        }
      ],
      "name": "StakersBalance",
      "outputs": [
        {
          "internalType": "uint256",
          "name": "",
          "type": "uint256"
        }
      ],
      "stateMutability": "view",
      "type": "function"
    },
    {
      "inputs": [
        {
          "internalType": "address",
          "name": "account",
          "type": "address"
        }
      ],
      "name": "earned",
      "outputs": [
        {
          "internalType": "uint256",
          "name": "",
          "type": "uint256"
        }
      ],
      "stateMutability": "view",
      "type": "function"
    },
    {
      "inputs": [],
      "name": "myToken",
      "outputs": [
        {
          "internalType": "contract Mytoken",
          "name": "",
          "type": "address"
        }
      ],
      "stateMutability": "view",
      "type": "function"
    },
    {
      "inputs": [],
      "name": "rewardPerToken",
      "outputs": [
        {
          "internalType": "uint256",
          "name": "",
          "type": "uint256"
        }
      ],
      "stateMutability": "view",
      "type": "function"
    },
    {
      "inputs": [],
      "name": "s_lastUpdateTime",
      "outputs": [
        {
          "internalType": "uint256",
          "name": "",
          "type": "uint256"
        }
      ],
      "stateMutability": "view",
      "type": "function"
    },
    {
      "inputs": [],
      "name": "s_rewardPerTokenStored",
      "outputs": [
        {
          "internalType": "uint256",
          "name": "",
          "type": "uint256"
        }
      ],
      "stateMutability": "view",
      "type": "function"
    },
    {
      "inputs": [],
      "name": "s_totalSupply",
      "outputs": [
        {
          "internalType": "uint256",
          "name": "",
          "type": "uint256"
        }
      ],
      "stateMutability": "view",
      "type": "function"
    },
    {
      "inputs": [],
      "name": "stake",
      "outputs": [],
      "stateMutability": "payable",
      "type": "function"
    },
    {
      "inputs": [],
      "name": "unboundingPeriod",
      "outputs": [
        {
          "internalType": "uint256",
          "name": "",
          "type": "uint256"
        }
      ],
      "stateMutability": "view",
      "type": "function"
    },
    {
      "inputs": [
        {
          "internalType": "uint256",
          "name": "amount",
          "type": "uint256"
        }
      ],
      "name": "unstake",
      "outputs": [],
      "stateMutability": "nonpayable",
      "type": "function"
    },
    {
      "inputs": [],
      "name": "unstakeTimestamp",
      "outputs": [
        {
          "internalType": "uint256",
          "name": "",
          "type": "uint256"
        }
      ],
      "stateMutability": "view",
      "type": "function"
    },
    {
      "inputs": [
        {
          "internalType": "uint256",
          "name": "amount",
          "type": "uint256"
        }
      ],
      "name": "withdraw",
      "outputs": [],
      "stateMutability": "nonpayable",
      "type": "function"
    },
    {
      "stateMutability": "payable",
      "type": "receive"
    }
  ],
  "transactionHash": "0x8a0f85f3fa5be618494c6945114e5efbfa75c68bcd702e23360ab5fb2c540958",
  "args": [
    "0x4d2A311a9F1e5dD098489395d3FBd5b609d4f093"
  ],
  "numDeployments": 5,
  "solcInputHash": "22448bceb48d3273147fc14b6911aad8",
  "bytecode": "0x60806040526064600255670de0b6b3a76400006006553480156200002257600080fd5b506040516200136638038062001366833981810160405281019062000048919062000116565b600160008190555080600160006101000a81548173ffffffffffffffffffffffffffffffffffffffff021916908373ffffffffffffffffffffffffffffffffffffffff1602179055505062000148565b600080fd5b600073ffffffffffffffffffffffffffffffffffffffff82169050919050565b6000620000ca826200009d565b9050919050565b6000620000de82620000bd565b9050919050565b620000f081620000d1565b8114620000fc57600080fd5b50565b6000815190506200011081620000e5565b92915050565b6000602082840312156200012f576200012e62000098565b5b60006200013f84828501620000ff565b91505092915050565b61120e80620001586000396000f3fe6080604052600436106100c55760003560e01c80636aa0838f1161007f5780638a1833a5116100595780638a1833a514610250578063b8fcf9371461027b578063ccc23e52146102a6578063cd3daf9d146102d1576100cc565b80636aa0838f146101bd57806375edb325146101e8578063852b96c714610213576100cc565b80628cc262146100ce5780632e17de781461010b5780632e1a7d4d14610134578063304ac91b1461015d5780633a4b66f1146101885780636a74a0fc14610192576100cc565b366100cc57005b005b3480156100da57600080fd5b506100f560048036038101906100f09190610d98565b6102fc565b6040516101029190610dde565b60405180910390f35b34801561011757600080fd5b50610132600480360381019061012d9190610e25565b610415565b005b34801561014057600080fd5b5061015b60048036038101906101569190610e25565b6104f0565b005b34801561016957600080fd5b5061017261089a565b60405161017f9190610dde565b60405180910390f35b6101906108a0565b005b34801561019e57600080fd5b506101a7610c1d565b6040516101b49190610dde565b60405180910390f35b3480156101c957600080fd5b506101d2610c23565b6040516101df9190610dde565b60405180910390f35b3480156101f457600080fd5b506101fd610c29565b60405161020a9190610dde565b60405180910390f35b34801561021f57600080fd5b5061023a60048036038101906102359190610d98565b610c2f565b6040516102479190610dde565b60405180910390f35b34801561025c57600080fd5b50610265610c47565b6040516102729190610dde565b60405180910390f35b34801561028757600080fd5b50610290610c4d565b60405161029d9190610eb1565b60405180910390f35b3480156102b257600080fd5b506102bb610c73565b6040516102c89190610dde565b60405180910390f35b3480156102dd57600080fd5b506102e6610c79565b6040516102f39190610dde565b60405180910390f35b600080600760008473ffffffffffffffffffffffffffffffffffffffff1673ffffffffffffffffffffffffffffffffffffffff1681526020019081526020016000205490506000600960008573ffffffffffffffffffffffffffffffffffffffff1673ffffffffffffffffffffffffffffffffffffffff168152602001908152602001600020549050600061038f610c79565b90506000600860008773ffffffffffffffffffffffffffffffffffffffff1673ffffffffffffffffffffffffffffffffffffffff16815260200190815260200160002054905080670de0b6b3a764000084846103eb9190610efb565b866103f69190610f2f565b6104009190610fa0565b61040a9190610fd1565b945050505050919050565b6000600760003373ffffffffffffffffffffffffffffffffffffffff1673ffffffffffffffffffffffffffffffffffffffff168152602001908152602001600020541015610498576040517f08c379a000000000000000000000000000000000000000000000000000000000815260040161048f90611062565b60405180910390fd5b42600c819055506103e860068190555042813373ffffffffffffffffffffffffffffffffffffffff167f874b6b6176c92c12e9ffa729ba947c2b035854d42b9df613ee4100f08548136760405160405180910390a450565b6104f8610c79565b6005819055504260048190555061050e336102fc565b600860003373ffffffffffffffffffffffffffffffffffffffff1673ffffffffffffffffffffffffffffffffffffffff16815260200190815260200160002081905550600554600960003373ffffffffffffffffffffffffffffffffffffffff1673ffffffffffffffffffffffffffffffffffffffff16815260200190815260200160002081905550670de0b6b3a7640000600654141580156105f0575080600760003373ffffffffffffffffffffffffffffffffffffffff1673ffffffffffffffffffffffffffffffffffffffff1681526020019081526020016000205410155b156108655742600a60003373ffffffffffffffffffffffffffffffffffffffff1673ffffffffffffffffffffffffffffffffffffffff1681526020019081526020016000208190555080600760003373ffffffffffffffffffffffffffffffffffffffff1673ffffffffffffffffffffffffffffffffffffffff168152602001908152602001600020546106849190610efb565b600760003373ffffffffffffffffffffffffffffffffffffffff1673ffffffffffffffffffffffffffffffffffffffff16815260200190815260200160002081905550806003546106d59190610efb565b600381905550600160009054906101000a900473ffffffffffffffffffffffffffffffffffffffff1673ffffffffffffffffffffffffffffffffffffffff16639dc29fac33836040518363ffffffff1660e01b8152600401610738929190611091565b600060405180830381600087803b15801561075257600080fd5b505af1158015610766573d6000803e3d6000fd5b50505050803373ffffffffffffffffffffffffffffffffffffffff167ffc30cddea38e2bf4d6ea7d3f9ed3b6ad7f176419f4963bd81318067a4aee73fe60405160405180910390a3600160009054906101000a900473ffffffffffffffffffffffffffffffffffffffff1673ffffffffffffffffffffffffffffffffffffffff166340c10f193383600a6001866107fd9190610f2f565b6108079190610fa0565b6108119190610fd1565b6040518363ffffffff1660e01b815260040161082e929190611091565b600060405180830381600087803b15801561084857600080fd5b505af115801561085c573d6000803e3d6000fd5b50505050610897565b6040517f1f2dcc7600000000000000000000000000000000000000000000000000000000815260040160405180910390fd5b50565b60055481565b6108a8610c79565b600581905550426004819055506108be336102fc565b600860003373ffffffffffffffffffffffffffffffffffffffff1673ffffffffffffffffffffffffffffffffffffffff16815260200190815260200160002081905550600554600960003373ffffffffffffffffffffffffffffffffffffffff1673ffffffffffffffffffffffffffffffffffffffff1681526020019081526020016000208190555060003403610981576040517fe5fbc37f00000000000000000000000000000000000000000000000000000000815260040160405180910390fd5b610989610cdc565b600034905080600760003373ffffffffffffffffffffffffffffffffffffffff1673ffffffffffffffffffffffffffffffffffffffff168152602001908152602001600020546109d99190610fd1565b600760003373ffffffffffffffffffffffffffffffffffffffff1673ffffffffffffffffffffffffffffffffffffffff1681526020019081526020016000208190555080600354610a2a9190610fd1565b60038190555060003073ffffffffffffffffffffffffffffffffffffffff1634604051610a56906110eb565b60006040518083038185875af1925050503d8060008114610a93576040519150601f19603f3d011682016040523d82523d6000602084013e610a98565b606091505b5050905034600760003373ffffffffffffffffffffffffffffffffffffffff1673ffffffffffffffffffffffffffffffffffffffff1681526020019081526020016000208190555080610b20576040517f08c379a0000000000000000000000000000000000000000000000000000000008152600401610b179061114c565b60405180910390fd5b6000606434605d610b319190610f2f565b610b3b9190610fa0565b9050600160009054906101000a900473ffffffffffffffffffffffffffffffffffffffff1673ffffffffffffffffffffffffffffffffffffffff166340c10f1933836040518363ffffffff1660e01b8152600401610b9a929190611091565b600060405180830381600087803b158015610bb457600080fd5b505af1158015610bc8573d6000803e3d6000fd5b50505050343373ffffffffffffffffffffffffffffffffffffffff167f9e71bc8eea02a63969f509818f2dafb9254532904319f9dbda79b67bd34a5f3d60405160405180910390a3505050610c1b610d2b565b565b60035481565b60045481565b600c5481565b600b6020528060005260406000206000915090505481565b60025481565b600160009054906101000a900473ffffffffffffffffffffffffffffffffffffffff1681565b60065481565b60008060035403610c8e576005549050610cd9565b600354670de0b6b3a764000060025460045442610cab9190610efb565b610cb59190610f2f565b610cbf9190610f2f565b610cc99190610fa0565b600554610cd69190610fd1565b90505b90565b600260005403610d21576040517f08c379a0000000000000000000000000000000000000000000000000000000008152600401610d18906111b8565b60405180910390fd5b6002600081905550565b6001600081905550565b600080fd5b600073ffffffffffffffffffffffffffffffffffffffff82169050919050565b6000610d6582610d3a565b9050919050565b610d7581610d5a565b8114610d8057600080fd5b50565b600081359050610d9281610d6c565b92915050565b600060208284031215610dae57610dad610d35565b5b6000610dbc84828501610d83565b91505092915050565b6000819050919050565b610dd881610dc5565b82525050565b6000602082019050610df36000830184610dcf565b92915050565b610e0281610dc5565b8114610e0d57600080fd5b50565b600081359050610e1f81610df9565b92915050565b600060208284031215610e3b57610e3a610d35565b5b6000610e4984828501610e10565b91505092915050565b6000819050919050565b6000610e77610e72610e6d84610d3a565b610e52565b610d3a565b9050919050565b6000610e8982610e5c565b9050919050565b6000610e9b82610e7e565b9050919050565b610eab81610e90565b82525050565b6000602082019050610ec66000830184610ea2565b92915050565b7f4e487b7100000000000000000000000000000000000000000000000000000000600052601160045260246000fd5b6000610f0682610dc5565b9150610f1183610dc5565b9250828203905081811115610f2957610f28610ecc565b5b92915050565b6000610f3a82610dc5565b9150610f4583610dc5565b9250828202610f5381610dc5565b91508282048414831517610f6a57610f69610ecc565b5b5092915050565b7f4e487b7100000000000000000000000000000000000000000000000000000000600052601260045260246000fd5b6000610fab82610dc5565b9150610fb683610dc5565b925082610fc657610fc5610f71565b5b828204905092915050565b6000610fdc82610dc5565b9150610fe783610dc5565b9250828201905080821115610fff57610ffe610ecc565b5b92915050565b600082825260208201905092915050565b7f4e6f20616d6f756e74207374616b656400000000000000000000000000000000600082015250565b600061104c601083611005565b915061105782611016565b602082019050919050565b6000602082019050818103600083015261107b8161103f565b9050919050565b61108b81610d5a565b82525050565b60006040820190506110a66000830185611082565b6110b36020830184610dcf565b9392505050565b600081905092915050565b50565b60006110d56000836110ba565b91506110e0826110c5565b600082019050919050565b60006110f6826110c8565b9150819050919050565b7f4661696c656420746f2073656e64204574686572000000000000000000000000600082015250565b6000611136601483611005565b915061114182611100565b602082019050919050565b6000602082019050818103600083015261116581611129565b9050919050565b7f5265656e7472616e637947756172643a207265656e7472616e742063616c6c00600082015250565b60006111a2601f83611005565b91506111ad8261116c565b602082019050919050565b600060208201905081810360008301526111d181611195565b905091905056fea26469706673582212209f4f8bdd16bb4198fb835c3777969ea5b56f245d878e26306f73f4b7e8010af464736f6c63430008180033",
  "devdoc": {
    "kind": "dev",
    "methods": {},
    "version": 1
  },
  "userdoc": {
    "kind": "user",
    "methods": {},
    "version": 1
  },
  "storageLayout": {
    "storage": [
      {
        "astId": 10,
        "contract": "contracts/Staking.sol:Staking",
        "label": "_status",
        "offset": 0,
        "slot": "0",
        "type": "t_uint256"
      },
      {
        "astId": 1784,
        "contract": "contracts/Staking.sol:Staking",
        "label": "myToken",
        "offset": 0,
        "slot": "1",
        "type": "t_contract(Mytoken)941"
      },
      {
        "astId": 1818,
        "contract": "contracts/Staking.sol:Staking",
        "label": "RewardRate",
        "offset": 0,
        "slot": "2",
        "type": "t_uint256"
      },
      {
        "astId": 1820,
        "contract": "contracts/Staking.sol:Staking",
        "label": "s_totalSupply",
        "offset": 0,
        "slot": "3",
        "type": "t_uint256"
      },
      {
        "astId": 1822,
        "contract": "contracts/Staking.sol:Staking",
        "label": "s_lastUpdateTime",
        "offset": 0,
        "slot": "4",
        "type": "t_uint256"
      },
      {
        "astId": 1824,
        "contract": "contracts/Staking.sol:Staking",
        "label": "s_rewardPerTokenStored",
        "offset": 0,
        "slot": "5",
        "type": "t_uint256"
      },
      {
        "astId": 1827,
        "contract": "contracts/Staking.sol:Staking",
        "label": "unboundingPeriod",
        "offset": 0,
        "slot": "6",
        "type": "t_uint256"
      },
      {
        "astId": 1831,
        "contract": "contracts/Staking.sol:Staking",
        "label": "s_userStakedAmount",
        "offset": 0,
        "slot": "7",
        "type": "t_mapping(t_address,t_uint256)"
      },
      {
        "astId": 1835,
        "contract": "contracts/Staking.sol:Staking",
        "label": "s_rewards",
        "offset": 0,
        "slot": "8",
        "type": "t_mapping(t_address,t_uint256)"
      },
      {
        "astId": 1839,
        "contract": "contracts/Staking.sol:Staking",
        "label": "s_userRewardsPerToken_Paid",
        "offset": 0,
        "slot": "9",
        "type": "t_mapping(t_address,t_uint256)"
      },
      {
        "astId": 1843,
        "contract": "contracts/Staking.sol:Staking",
        "label": "withdrawTimeStamp",
        "offset": 0,
        "slot": "10",
        "type": "t_mapping(t_address,t_uint256)"
      },
      {
        "astId": 1847,
        "contract": "contracts/Staking.sol:Staking",
        "label": "StakersBalance",
        "offset": 0,
        "slot": "11",
        "type": "t_mapping(t_address,t_uint256)"
      },
      {
        "astId": 2075,
        "contract": "contracts/Staking.sol:Staking",
        "label": "unstakeTimestamp",
        "offset": 0,
        "slot": "12",
        "type": "t_uint256"
      }
    ],
    "types": {
      "t_address": {
        "encoding": "inplace",
        "label": "address",
        "numberOfBytes": "20"
      },
      "t_contract(Mytoken)941": {
        "encoding": "inplace",
        "label": "contract Mytoken",
        "numberOfBytes": "20"
      },
      "t_mapping(t_address,t_uint256)": {
        "encoding": "mapping",
        "key": "t_address",
        "label": "mapping(address => uint256)",
        "numberOfBytes": "32",
        "value": "t_uint256"
      },
      "t_uint256": {
        "encoding": "inplace",
        "label": "uint256",
        "numberOfBytes": "32"
      }
    }
  }
}